{
  "contractName": "ViewManager",
  "abi": [
    {
      "anonymous": false,
      "inputs": [
        {
          "indexed": false,
          "internalType": "string",
          "name": "userView",
          "type": "string"
        },
        {
          "indexed": false,
          "internalType": "address",
          "name": "userAddress",
          "type": "address"
        },
        {
          "indexed": false,
          "internalType": "uint256",
          "name": "viewCreationTimeInEpoch",
          "type": "uint256"
        }
      ],
      "name": "newViewAdded",
      "type": "event"
    },
    {
      "inputs": [
        {
          "internalType": "string",
          "name": "input",
          "type": "string"
        }
      ],
      "name": "AddView",
      "outputs": [
        {
          "internalType": "string",
          "name": "",
          "type": "string"
        }
      ],
      "stateMutability": "nonpayable",
      "type": "function"
    },
    {
      "inputs": [],
      "name": "GetAllViews",
      "outputs": [
        {
          "components": [
            {
              "internalType": "string",
              "name": "userView",
              "type": "string"
            },
            {
              "internalType": "address",
              "name": "userAddress",
              "type": "address"
            },
            {
              "internalType": "uint256",
              "name": "viewCreationTimeInEpoch",
              "type": "uint256"
            }
          ],
          "internalType": "struct ViewManager.ViewModel[]",
          "name": "",
          "type": "tuple[]"
        }
      ],
      "stateMutability": "view",
      "type": "function",
      "constant": true
    }
  ],
  "bytecode": "0x608060405234801561001057600080fd5b50610ab7806100206000396000f3fe608060405234801561001057600080fd5b50600436106100365760003560e01c806317fdb31e1461003b578063788095f814610059575b600080fd5b610043610089565b6040516100509190610527565b60405180910390f35b610073600480360381019061006e9190610692565b6101da565b6040516100809190610725565b60405180910390f35b60606000805480602002602001604051908101604052809291908181526020016000905b828210156101d157838290600052602060002090600302016040518060600160405290816000820180546100e090610776565b80601f016020809104026020016040519081016040528092919081815260200182805461010c90610776565b80156101595780601f1061012e57610100808354040283529160200191610159565b820191906000526020600020905b81548152906001019060200180831161013c57829003601f168201915b505050505081526020016001820160009054906101000a900473ffffffffffffffffffffffffffffffffffffffff1673ffffffffffffffffffffffffffffffffffffffff1673ffffffffffffffffffffffffffffffffffffffff168152602001600282015481525050815260200190600101906100ad565b50505050905090565b6060600060405180606001604052808481526020013373ffffffffffffffffffffffffffffffffffffffff168152602001428152509050600081908060018154018082558091505060019003906000526020600020906003020160009091909190915060008201518160000190816102529190610953565b5060208201518160010160006101000a81548173ffffffffffffffffffffffffffffffffffffffff021916908373ffffffffffffffffffffffffffffffffffffffff1602179055506040820151816002015550507fd8675403338af3f8c35d39c46e526084627a8d174b5f1f4c5f1d0e4c22cfbc988160000151826020015183604001516040516102e593929190610a43565b60405180910390a16040518060400160405280600781526020017f7375636365737300000000000000000000000000000000000000000000000000815250915050919050565b600081519050919050565b600082825260208201905092915050565b6000819050602082019050919050565b600081519050919050565b600082825260208201905092915050565b60005b83811015610391578082015181840152602081019050610376565b60008484015250505050565b6000601f19601f8301169050919050565b60006103b982610357565b6103c38185610362565b93506103d3818560208601610373565b6103dc8161039d565b840191505092915050565b600073ffffffffffffffffffffffffffffffffffffffff82169050919050565b6000610412826103e7565b9050919050565b61042281610407565b82525050565b6000819050919050565b61043b81610428565b82525050565b6000606083016000830151848203600086015261045e82826103ae565b91505060208301516104736020860182610419565b5060408301516104866040860182610432565b508091505092915050565b600061049d8383610441565b905092915050565b6000602082019050919050565b60006104bd8261032b565b6104c78185610336565b9350836020820285016104d985610347565b8060005b8581101561051557848403895281516104f68582610491565b9450610501836104a5565b925060208a019950506001810190506104dd565b50829750879550505050505092915050565b6000602082019050818103600083015261054181846104b2565b905092915050565b6000604051905090565b600080fd5b600080fd5b600080fd5b600080fd5b7f4e487b7100000000000000000000000000000000000000000000000000000000600052604160045260246000fd5b61059f8261039d565b810181811067ffffffffffffffff821117156105be576105bd610567565b5b80604052505050565b60006105d1610549565b90506105dd8282610596565b919050565b600067ffffffffffffffff8211156105fd576105fc610567565b5b6106068261039d565b9050602081019050919050565b82818337600083830152505050565b6000610635610630846105e2565b6105c7565b90508281526020810184848401111561065157610650610562565b5b61065c848285610613565b509392505050565b600082601f8301126106795761067861055d565b5b8135610689848260208601610622565b91505092915050565b6000602082840312156106a8576106a7610553565b5b600082013567ffffffffffffffff8111156106c6576106c5610558565b5b6106d284828501610664565b91505092915050565b600082825260208201905092915050565b60006106f782610357565b61070181856106db565b9350610711818560208601610373565b61071a8161039d565b840191505092915050565b6000602082019050818103600083015261073f81846106ec565b905092915050565b7f4e487b7100000000000000000000000000000000000000000000000000000000600052602260045260246000fd5b6000600282049050600182168061078e57607f821691505b6020821081036107a1576107a0610747565b5b50919050565b60008190508160005260206000209050919050565b60006020601f8301049050919050565b600082821b905092915050565b6000600883026108097fffffffffffffffffffffffffffffffffffffffffffffffffffffffffffffffff826107cc565b61081386836107cc565b95508019841693508086168417925050509392505050565b6000819050919050565b600061085061084b61084684610428565b61082b565b610428565b9050919050565b6000819050919050565b61086a83610835565b61087e61087682610857565b8484546107d9565b825550505050565b600090565b610893610886565b61089e818484610861565b505050565b5b818110156108c2576108b760008261088b565b6001810190506108a4565b5050565b601f821115610907576108d8816107a7565b6108e1846107bc565b810160208510156108f0578190505b6109046108fc856107bc565b8301826108a3565b50505b505050565b600082821c905092915050565b600061092a6000198460080261090c565b1980831691505092915050565b60006109438383610919565b9150826002028217905092915050565b61095c82610357565b67ffffffffffffffff81111561097557610974610567565b5b61097f8254610776565b61098a8282856108c6565b600060209050601f8311600181146109bd57600084156109ab578287015190505b6109b58582610937565b865550610a1d565b601f1984166109cb866107a7565b60005b828110156109f3578489015182556001820191506020850194506020810190506109ce565b86831015610a105784890151610a0c601f891682610919565b8355505b6001600288020188555050505b505050505050565b610a2e81610407565b82525050565b610a3d81610428565b82525050565b60006060820190508181036000830152610a5d81866106ec565b9050610a6c6020830185610a25565b610a796040830184610a34565b94935050505056fea2646970667358221220404e8ff57b849b7769d2462f53c00c7d3f3eed7ca0fbcce6cbcc4586b6ac201264736f6c63430008110033",
  "immutableReferences": {},
  "source": "pragma solidity ^0.8.17;\r\n\r\ncontract ViewManager\r\n{\r\n    struct ViewModel{\r\n        string userView;\r\n        address userAddress;\r\n        uint viewCreationTimeInEpoch;\r\n    }\r\n\r\n    // Declaring an event\r\n    event newViewAdded(string userView, address userAddress, uint viewCreationTimeInEpoch);  \r\n    \r\n    ViewModel[] views ;\r\n    \r\n    function AddView(string memory input) public returns(string memory)\r\n    {\r\n        ViewModel memory currView = ViewModel(input, msg.sender, block.timestamp );\r\n        views.push(currView);\r\n        emit newViewAdded(currView.userView, currView.userAddress, currView.viewCreationTimeInEpoch);  \r\n        return \"success\";\r\n    }\r\n\r\n    function GetAllViews() public view returns(ViewModel[] memory)\r\n    { \r\n        return views;\r\n    }\r\n}",
  "sourcePath": "C:\\TweetOnBlockchain\\contracts\\ViewManager.sol",
  "compiler": {
    "name": "solc",
    "version": "0.8.17+commit.8df45f5f.Emscripten.clang"
  },
  "schemaVersion": "3.4.10",
  "updatedAt": "2022-09-23T12:51:44.537Z",
  "networkType": "ethereum",
  "devdoc": {
    "kind": "dev",
    "methods": {},
    "version": 1
  },
  "userdoc": {
    "kind": "user",
    "methods": {},
    "version": 1
  }
}